:020000040800F2
:100000000000032021030008290300083103000831
:1000100039030008410300084903000800000000FC
:100020000000000000000000000000005103000874
:10003000590300080000000061030008AD15000826
:1000400071030008710300087103000871030008C0
:1000500071030008710300087103000871030008B0
:1000600071030008710300087103000871030008A0
:100070007103000871030008710300087103000890
:100080007103000871030008710300087103000880
:100090007103000871030008710300087103000870
:1000A0007103000871030008710300087103000860
:1000B0007103000871030008710300087103000850
:1000C0007103000871030008710300087103000840
:1000D0007103000871030008710300087103000830
:1000E0007103000871030008710300087103000820
:1000F0007103000871030008710300087103000810
:1001000071030008710300087103000871030008FF
:1001100071030008710300087103000871030008EF
:1001200071030008710300087103000871030008DF
:1001300071030008710300087103000871030008CF
:1001400071030008710300087103000871030008BF
:1001500071030008710300087103000871030008AF
:10016000710300087103000871030008710300089F
:10017000710300087103000871030008000000000B
:10018000710300087103000871030008710300087F
:10019000710300087103000871030008710300086F
:1001A00071030008710300087103000880B58EB068
:1001B00000AF4A4B4A4A1A604A4B494A1A604A4BB6
:1001C0003B634A4BFB623B6BBB6204E0BB6A1A1D9C
:1001D000BA6200221A60FA6ABB6A9A42F6D83F4BAA
:1001E0001B68002B03D13F4B1B68002B00D0FEE7A0
:1001F0003F4B3B4A1A603F4B394A1A603E4B7B6289
:100200003E4B3B623E4BFB613B6ABB6107E0BB6917
:100210001A1DBA617A6A111D796212681A60FA6948
:10022000BB699A42F3D8324B1A68364B9A4205D1D1
:10023000304B1A682F4B1B689A4200D0FEE701F042
:1002400053F93A1D3B461046194601F055F82E4A1F
:100250002E4BD31A9B107B6100233B6107E02B4B95
:100260003A6953F8223098473B6901333B617A6918
:100270003B699A42F3DC264A264BD31A9B107B61DA
:1002800000233B6107E0234B3A6953F8223098473B
:100290003B6901333B617A693B699A42F3DC7A68D6
:1002A0003B681046194601F09FF978631A4A1B4BC8
:1002B000D31A9B10FB60FB68BB6008E0BB685A1E4A
:1002C000164B53F822309847BB68013BBB60BB68B4
:1002D000002BF3DC786B00F0CBFF00BF7800002030
:1002E000BABADECA1C0100207800002020010020DC
:1002F0000000002074000020D81F0008000000202B
:10030000780000207856341278030008780300083B
:1003100078030008780300087803000878030008D1
:1003200080B500AFFFF742FF80B400AFFEE700BF2B
:1003300080B400AFFEE700BF80B400AFFEE700BFAF
:1003400080B400AFFEE700BF80B400AFFEE700BF9F
:1003500080B400AFFEE700BF80B400AFFEE700BF8F
:1003600080B400AFFEE700BF80B400AFFEE700BF7F
:0803700080B400AFFEE700BFFE
:1003780080B500AF0C4B0C4A126842F400721A6048
:10038800094B094A126842F480621A60064B064A11
:10039800126842F480721A60032000F0E7F800F057
:1003A80005F80023184680BD003C024080B400AF29
:1003B800BD465DF8047B704780B582B000AF7860B9
:1003C80000F026FF0246094BA3FB02139B091846BF
:1003D80000F018F94FF0FF307968002200F0E6F8D5
:1003E800002318460837BD4680BD00BFD34D6210B4
:1003F80080B400AF034B1B681846BD465DF8047B0C
:10040800704700BF7C00002080B485B000AF7860E2
:100418007B6803F00703FB600C4BDB68BB60BA68C2
:100428004FF6FF031340BB60FB681A02BB68134317
:1004380043F0BF6343F40033BB60044BBA68DA602F
:100448001437BD465DF8047B704700BF00ED00E03F
:1004580080B400AF044BDB6803F4E0631B0A184662
:10046800BD465DF8047B704700ED00E080B483B0C2
:1004780000AF03463960FB7197F90730002B0BDAA0
:100488000D49FB7903F00F03043B3A68D2B212011D
:10049800D2B20B441A7609E0084997F907303A684E
:1004A800D2B21201D2B20B4483F800230C37BD46F6
:1004B8005DF8047B704700BF00ED00E000E100E05C
:1004C80080B489B000AFF860B9607A60FB6803F067
:1004D8000703FB61FB69C3F10703042B28BF04234F
:1004E800BB61FB690433062B02D9FB69033B00E0BF
:1004F80000237B61BB69012202FA03F3013B1A4620
:10050800BB681A407B699A407B69012101FA03F3B1
:10051800013B19467B680B40134318462437BD46F8
:100528005DF8047B704700BF80B582B000AF78608B
:100538007B68013BB3F1807F01D301230FE00A4BB5
:100548007A68013A5A604FF0FF300F21FFF78EFFAB
:10055800054B00229A60044B07221A6000231846B4
:100568000837BD4680BD00BF10E000E080B582B00E
:1005780000AF78607B68072B0FD07B68062B0CD008
:100588007B68052B09D07B68042B06D07B68032B7E
:1005980003D00548A42100F0BFFE7868FFF734FFB8
:1005A8000837BD4680BD00BF741E000880B586B000
:1005B80000AF0346B9607A60FB7300237B617B68F8
:1005C8000F2B03D90E48BC2100F0A6FEBB680F2BE9
:1005D80003D90B48BD2100F09FFEFFF739FF786172
:1005E8007869B9687A68FFF76BFF034697F90F20B7
:1005F80010461946FFF73AFF1837BD4680BD00BFC1
:10060800741E000880B582B000AF78607868FFF784
:100618008BFF034618460837BD4680BD80B598B0A5
:1006280000AF78600023FB657B681B680F2B03D93C
:10063800A548FD2100F070FE7B681B6803F00103EC
:10064800002B7BD07B685B68002B0CD07B685B68D9
:10065800012B08D07B685B68052B04D09A484FF4BF
:10066800817100F059FE994B9B6803F00C03042B31
:100678000BD0964B9B6803F00C03082B12D1934BBD
:100688005B6803F48003002B0CD0904B1B6803F4C9
:100698000033002B05D07B685B68012B01D0012358
:1006A800BEE24BE08A4B00221A70FFF7A1FEF86504
:1006B8000AE0FFF79DFE0246FB6DD21A41F288332D
:1006C8009A4201D90323ABE2804B1B6803F4003341
:1006D800002BEED17E4B7A685268D2B21A707B68D2
:1006E8005B68012B15D1FFF783FEF8650AE0FFF779
:1006F8007FFE0246FB6DD21A41F288339A4201D935
:1007080003238DE2714B1B6803F40033002BEED0FA
:1007180014E0FFF76DFEF8650AE0FFF769FE024690
:10072800FB6DD21A41F288339A4201D9032377E24A
:10073800664B1B6803F40033002BEED17B681B6803
:1007480003F00203002B00F098807B68DB68002B25
:1007580008D07B68DB68012B04D05B484FF4A1719B
:1007680000F0DAFD7B681B691F2B04D9564840F25C
:10077800431100F0D1FD554B9B6803F00C03002B8F
:100788000BD0524B9B6803F00C03082B2BD14F4B1B
:100798005B6803F48003002B25D14C4B1B6803F0E6
:1007A8000203002B05D07B68DB68012B01D00123F5
:1007B80036E2464B454A126822F0F8017A68106919
:1007C800F822BA65BA6D92FAA2F27A657A6D3A653C
:1007D8003A6DB2FA82F2FA64FA6CD2B200FA02F214
:1007E8000A431A6049E07B68DB68002B2FD0394B3D
:1007F80001221A60FFF7FCFDF86508E0FFF7F8FD35
:100808000246FB6DD31A642B01D9032308E22F4B50
:100818001B6803F00203002BF0D02C4B2B4A126804
:1008280022F0F8017A681069F822BA64BA6C92FA70
:10083800A2F27A647A6C3A643A6CB2FA82F2FA6397
:10084800FA6BD2B200FA02F20A431A6015E0214BA1
:1008580000221A60FFF7CCFDF86508E0FFF7C8FD35
:100868000246FB6DD31A642B01D90323D8E1174B39
:100878001B6803F00203002BF0D17B681B6803F0B0
:100888000803002B47D07B685B69002B08D07B6886
:100898005B69012B04D00C484FF4C17100F03CFD9A
:1008A8007B685B69002B20D00B4B01221A60FFF795
:1008B8009FFDF86512E0FFF79BFD0246FB6DD31A1A
:1008C800642B0BD90323ABE1B81E000800380240A3
:1008D8000238024000004742800E47428B4B5B6F54
:1008E80003F00203002BE6D015E0894B00221A60C2
:1008F800FFF77EFDF86508E0FFF77AFD0246FB6D1D
:10090800D31A642B01D903238AE1804B5B6F03F070
:100918000203002BF0D17B681B6803F00403002B53
:100928007BD07B689B68002B0CD07B689B68012B75
:1009380008D07B689B68052B04D076484FF4D671A5
:1009480000F0EAFC714B714A126C42F080521A6452
:10095800714B714A126842F480721A60FFF748FDC1
:10096800F86508E0FFF744FD0246FB6DD31A642BD7
:1009780001D9032354E1684B1B6803F48073002BEF
:10098800F0D0664B00221A70FFF732FDF8650AE0D6
:10099800FFF72EFD0246FB6DD21A41F288339A42C8
:1009A80001D903233CE1594B1B6F03F00203002BD1
:1009B800EED15A4B7A689268D2B21A707B689B68FB
:1009C800012B15D1FFF714FDF8650AE0FFF710FDBC
:1009D8000246FB6DD21A41F288339A4201D90323A9
:1009E8001EE14A4B1B6F03F00203002BEED014E00C
:1009F800FFF7FEFCF8650AE0FFF7FAFC0246FB6D1C
:100A0800D21A41F288339A4201D9032308E13F4BB5
:100A18001B6F03F00203002BEED17B689B69002B50
:100A28000CD07B689B69012B08D07B689B69022BE3
:100A380004D038484FF4F87100F06EFC7B689B696D
:100A4800002B00F0EC80314B9B6803F00C03082B63
:100A580000F0E3807B689B69022B40F0C7807B68CD
:100A6800DB69002B09D07B68DB69B3F5800F04D004
:100A7800284840F2F91100F04FFC7B681B6A3F2BB5
:100A880004D924484FF4FD7100F046FC7B685B6A8A
:100A9800BF2B04D97B685B6AB3F5D87F04D91D489E
:100AA80040F2FB1100F038FC7B689B6A022B10D0E7
:100AB8007B689B6A042B0CD07B689B6A062B08D04A
:100AC8007B689B6A082B04D012484FF4FE7100F033
:100AD80023FC7B68DB6A032B03D97B68DB6A0F2B5B
:100AE80004D90C4840F2FD1100F016FC0C4B002212
:100AF8001A60FFF77DFCF86514E0FFF779FC024601
:100B0800FB6DD31A642B0DD9032389E0003802400A
:100B1800800E4742B81E000800700040703802403E
:100B280060004742404B1B6803F00073002BE4D180
:100B38003D4B7A68116A7A68506A47F6C072BA63A0
:100B4800BA6B92FAA2F27A637A6B3A633A6BB2FAA8
:100B580082F2FA62FA6AD2B200FA02F211437A68B1
:100B6800926A5208501E4FF44032BA62BA6A92FA38
:100B7800A2F27A627A6A3A623A6AB2FA82F2FA615E
:100B8800FA69D2B200FA02F211437A68D2691143C3
:100B98007A68D06A4FF07062BA61BA6992FAA2F2C2
:100BA8007A617A693A613A69B2FA82F2FA60FA6865
:100BB800D2B200FA02F20A4342F000525A601B4BCA
:100BC80001221A60FFF714FCF86508E0FFF710FC33
:100BD8000246FB6DD31A642B01D9032320E0124B84
:100BE8001B6803F00073002BF0D018E00F4B0022B5
:100BF8001A60FFF7FDFBF86508E0FFF7F9FB02460E
:100C0800FB6DD31A642B01D9032309E0064B1B683B
:100C180003F00073002BF0D101E0012300E0002372
:100C280018466037BD4680BD003802406000474224
:100C380080B584B000AF786039600023FB607B68C2
:100C48001B68002B03D07B681B680F2B04D98648D0
:100C58004FF4187100F060FB3B68002B31D03B6803
:100C6800012B2ED03B68022B2BD03B68032B28D0BE
:100C78003B68042B25D03B68052B22D03B68062B0C
:100C88001FD03B68072B1CD03B68082B19D03B684A
:100C9800092B16D03B680A2B13D03B680B2B10D0BE
:100CA8003B680C2B0DD03B680D2B0AD03B680E2BF4
:100CB80007D03B680F2B04D06B4840F2612100F04D
:100CC8002BFB6A4B1B6803F00F023B689A4280F0CB
:100CD800D180664B3A68D2B21A70644B1B6803F035
:100CE8000F023B689A4201D00123E8E17B681B6848
:100CF80003F00203002B31D07B689B68002B24D0C3
:100D08007B689B68802B20D07B689B68902B1CD0CD
:100D18007B689B68A02B18D07B689B68B02B14D08D
:100D28007B689B68C02B10D07B689B68D02B0CD04D
:100D38007B689B68E02B08D07B689B68F02B04D00D
:100D4800494840F2772100F0E7FA494B484A92684F
:100D580022F0F0017A6892680A439A607B681B68FF
:100D680003F00103002B00F04D817B685B68002BCA
:100D78000CD07B685B68012B08D07B685B68022B12
:100D880004D0394840F27E2100F0C6FA7B685B68DF
:100D9800012B07D1364B1B6803F40033002B15D108
:100DA80001238CE17B685B68022B07D1304B1B6801
:100DB80003F00073002B09D1012380E12C4B1B6841
:100DC80003F00203002B01D1012378E1284B284AC4
:100DD800926822F003017A6852680A439A60FFF722
:100DE80007FBF8607B685B68012B12D10AE0FFF70C
:100DF800FFFA0246FB68D21A41F288339A4201D9B7
:100E080003235CE11A4B9B6803F00C03042BEED11F
:100E1800F8E07B685B68022B12D10AE0FFF7E8FA7A
:100E28000246FB68D21A41F288339A4201D9032359
:100E380045E10F4B9B6803F00C03082BEED1E1E072
:100E48000AE0FFF7D5FA0246FB68D21A41F2883366
:100E58009A4201D9032332E1054B9B6803F00C0346
:100E6800002BEED1CEE000BFB81E0008003C0240C7
:100E7800003802407B681B6803F00203002B31D066
:100E88007B689B68002B24D07B689B68802B20D0D4
:100E98007B689B68902B1CD07B689B68A02B18D024
:100EA8007B689B68B02B14D07B689B68C02B10D0E4
:100EB8007B689B68D02B0CD07B689B68E02B08D0A4
:100EC8007B689B68F02B04D07F4840F2C62100F075
:100ED80023FA7E4B7D4A926822F0F0017A68926884
:100EE8000A439A607B681B6803F00103002B7CD0DF
:100EF8007B685B68002B0CD07B685B68012B08D093
:100F08007B685B68022B04D06F4840F2CD2100F06B
:100F180003FA7B685B68012B07D16C4B1B6803F4F1
:100F28000033002B15D10123C9E07B685B68022BD5
:100F380007D1664B1B6803F00073002B09D101230E
:100F4800BDE0624B1B6803F00203002B01D10123B3
:100F5800B5E05E4B5D4A926822F003017A685268F8
:100F68000A439A60FFF744FAF8607B685B68012BD4
:100F780012D10AE0FFF73CFA0246FB68D21A41F2A6
:100F880088339A4201D9032399E0504B9B6803F0B8
:100F98000C03042BEED128E07B685B68022B12D18E
:100FA8000AE0FFF725FA0246FB68D21A41F28833B5
:100FB8009A4201D9032382E0444B9B6803F00C0357
:100FC800082BEED111E00AE0FFF712FA0246FB689F
:100FD800D21A41F288339A4201D903236FE03B4B7E
:100FE8009B6803F00C03002BEED1394B3A68D2B260
:100FF8001A70374B1B6803F00F023B689A4201D006
:1010080001235CE07B681B6803F00403002B25D0F8
:101018007B68DB68002B18D07B68DB68B3F5805FE2
:1010280013D07B68DB68B3F5A05F0ED07B68DB6804
:10103800B3F5C05F09D07B68DB68B3F5E05F04D027
:10104800214840F21D3100F067F9204B1F4A926891
:1010580022F4E0517A68D2680A439A607B681B6878
:1010680003F00803002B26D07B681B69002B18D0DF
:101078007B681B69B3F5805F13D07B681B69B3F588
:10108800A05F0ED07B681B69B3F5C05F09D07B6891
:101098001B69B3F5E05F04D00B484FF4497100F0C9
:1010A8003BF90A4B094A926822F460417A6812694E
:1010B800D2000A439A600F20FFF77EF900231846F2
:1010C8001037BD4680BD00BFB81E0008003802407A
:1010D800003C024080B495B000AF00237B6400233D
:1010E800FB6400233B640023BB64464B9B6803F00E
:1010F8000C03042B06D0082B07D0002B78D1424BC9
:10110800BB6478E0414BBB6475E03E4B5B6803F021
:101118003F037B643B4B5B6803F480024FF480031E
:10112800FB63FB6B93FAA3F3BB63BB6B7B637B6BC8
:10113800B3FA83F33B633B6BDBB222FA03F3002B76
:101148001CD0324A7B6CB2FBF3F22E4B596847F63F
:10115800C0730B4047F6C071F962F96A91FAA1F1C0
:10116800B962B96A7962796AB1FA81F13962396A20
:10117800C9B2CB4003FB02F3FB641BE0224A7B6C41
:10118800B2FBF3F21F4B596847F6C0730B4047F6A2
:10119800C071F961F96991FAA1F1B961B969796127
:1011A8007969B1FA81F139613969C9B2CB4003FB78
:1011B80002F3FB64134B5B6803F440324FF4403393
:1011C800FB60FB6893FAA3F3BB60BB687B607B683A
:1011D800B3FA83F33B603B68DBB222FA03F30133D3
:1011E8005B003B64FA6C3B6CB2FBF3F3BB6402E05C
:1011F800054BBB6400BFBB6C18465437BD465DF851
:10120800047B7047003802400024F40000127A0082
:1012180080B584B000AFFFF75DFF02460F4B9B68B7
:1012280003F0F001F023FB60FB6893FAA3F3BB60C3
:10123800BB687B607B68B3FA83F33B603B68DBB2D7
:1012480021FA03F30649CB5CDA40064B1A60054BDA
:101258001B6818461037BD4680BD00BF00380240E5
:10126800A81E00080C00002080B483B000AF78608E
:10127800FEE700BF80B500AF024800F07DF801200E
:10128800FFF7F2FFE81E000880B584B000AF786071
:10129800144B1B68002B02D1124B134A1A60114BD6
:1012A8001B68FB607B68033323F003037B600D4BF3
:1012B8001A687B681A440D4B9A4207D900F0B2F9B4
:1012C80003460C221A604FF0FF3306E0054B1A68FC
:1012D8007B681A44034B1A60FB6818461037BD46F2
:1012E80080BD00BF800000202001002000FC0220FB
:1012F80080B483B000AF786039607B6801221A60DF
:101308003B68044A1A6000BF0C37BD465DF8047B91
:10131800704700BF0400002080B582B000AF78603D
:101328003960034879683A6800F004F8FFF7A2FFCB
:10133800401F00080FB480B582B000AF07F1140356
:101348003B600C4880213A693B6800F0A3F978605B
:101358007B68002B05DD7B680648194600F024F8F9
:1013680078607B6818460837BD46BDE8804004B001
:10137800704700BF8800002080B582B000AF786059
:10138800786800F055F903467868194600F00CF8BB
:101398000448012100F008F8034618460837BD46FE
:1013A80080BD00BF6C1F000880B582B000AF7860B8
:1013B80039607868396800F005F803461846083738
:1013C800BD4680BDB0B58CB000AF786039602A4B9F
:1013D8001B6803F00103002B01D13B6847E0274B52
:1013E8001B68002B1DD1264BBB600423FB60032325
:1013F8003B610123BB6207F108037B62BC6A7D6A1B
:1014080020462946ABBE04463C623B6AFB62FB6A47
:10141800B3F1FF3F02D14FF0FF3328E0174BFA6AD0
:101428001A60164B1B68BB607B68FB603B683B61BE
:101438000523FB6107F10803BB61FC69BD69204610
:101448002946ABBE04467C617B69FB62FB6AB3F14B
:10145800FF3F02D14FF0FF3309E03A68FB6A9A4236
:1014680002D14FF0FF3302E03A68FB6AD31A1846FC
:101478003037BD46B0BD00BFF0ED00E008010020E8
:101488009C1F000880B400AF124B124A126842F049
:1014980001021A600F4B00229A600E4A0D4B1B681E
:1014A80023F0847323F4803313600A4B0A4A5A608A
:1014B800084B084A126822F480221A60054B002261
:1014C800DA60064B4FF000629A60BD465DF8047B17
:1014D800704700BF003802401030002400ED00E0E3
:1014E80080B500AFFFF7CEFFFEF742FF00F002F82D
:1014F80080BD00BF80B592B000AF1B4B1A4A126C7A
:1015080042F080521A64194B184A126842F4404259
:101518001A6001237B600123BB600223FB614FF447
:1015280080033B6208237B624FF4A873BB620223EB
:10153800FB6207233B633B1D1846FFF76FF80F2339
:101548007B630223BB630023FB634FF4A0533B641C
:101558004FF480537B6407F1340318460521FFF7E5
:1015680067FB4837BD4680BD003802400070004028
:1015780080B483B000AF0346FB71094B97F907208D
:101588005209F97901F01F01012000FA01F16032D6
:1015980043F822100C37BD465DF8047B704700BF46
:1015A80000E100E080B500AF4FF0FF30FFF7E0FF4B
:1015B800024B1B685A1C014B1A6080BD0C010020AD
:1015C80080B483B000AF786000BF7B685A1E7A6031
:1015D800002BFAD10C37BD465DF8047B704700BF7D
:1015E80080B582B000AF786039600B4B0A4A126B45
:1015F80042F040021A63094B084A126842F0A052AE
:101608001A60064B054A526982F4C0425A6104487E
:10161800FFF7D6FFF5E700BF003802400018024088
:1016280080969800014B1868704700BF7000002032
:10163800034613F8012B002AFBD1181A013870470A
:1016480030B5141E9BB0054604DA8B2303604FF0B7
:10165800FF301CE04FF4027200910491ADF80C20A9
:1016680014BF04F1FF3121464FF6FF720291059134
:10167800ADF80E2069461A461E9B00F077F8431C09
:10168800BCBF8B232B6014B1009B00221A701BB0C7
:1016980030BD000073B50093054B06460D46144651
:1016A800186831462A462346FFF7CAFF02B070BDC4
:1016B800700000202DE9F0478D68AB4281460C464A
:1016C80092461F4643D38B8913F4906F3DD026680A
:1016D8000969C1EB06086669022206EB460696FB15
:1016E800F2F608F101023A44964238BF16465B0505
:1016F8000FD5314600F026FB054698B121694246D0
:1017080000F0B7FAA38923F4906343F08003A38120
:1017180013E0324600F06AFB054670B94846216975
:1017280000F0CCFA0C23C9F80030A38943F0400339
:10173800A3814FF0FF30BDE8F0872561666145441D
:10174800C8EB06062560A6603D46AF4200D23D467E
:101758002A462068514600F095FAA3685B1BA360EF
:1017680023681D4425600020BDE8F0872DE9F0437B
:101778009DB0074603938B891C060D4616460CD56B
:101788000B6953B9402100F0DDFA2860286110B9CF
:101798000C233B60C8E040236B610023099320239E
:1017A8008DF8293030238DF82A3033461C4613F83B
:1017B800012B1AB9B4EB06090FD002E0252AF5D19E
:1017C800F8E73846294632464B46FFF773FF0130A3
:1017D80000F0A580099B4B4409932378002B00F067
:1017E8009E8000234FF0FF320493079305920693DF
:1017F8008DF853301A9304F101094C464D4E217867
:101808003046052200F026FA09F10109049B28B1A7
:10181800861B0120B04003430493EEE7D90644BF7A
:1018280020228DF853201A0744BF2B228DF853200D
:1018380022782A2A02D0079B21460EE0039A111D1E
:1018480012680391002A01DB079204E0524243F038
:1018580002030792049301340AE00C46013122780E
:10186800303A092A03D80A2000FB0323F5E7079337
:1018780023782E2B1AD163782A2B0AD1039B1A1DA1
:101888001B680392002B04F10204B8BF4FF0FF332A
:101898000BE0611C00230C4601312278303A092AFA
:1018A80003D80A2000FB0323F5E70593224E21788D
:1018B8003046032200F0CEF930B1861B049B40204D
:1018C800B04003430493013421781C488DF8281054
:1018D8000622661C00F0BEF988B1194B33B9039B88
:1018E800073323F007030833039314E003AB009393
:1018F800384604A92A46134BAFF3008007E003AB30
:101908000093384604A92A460E4B00F08FF8B0F130
:10191800FF3F804603D0099B4344099345E7AB89C1
:101928005B0601D4099801E04FF0FF301DB0BDE817
:10193800F08300BFA21F0008A81F0008AC1F000802
:1019480000000000BD1600082DE9F84315461F46A3
:101958008A680B69DDF820809A42A8BF13462B607D
:1019680091F8432006460C460AB101332B602368E0
:10197800990602D52B6802332B60236813F00609F9
:101988001DD094F843302268003318BF0123920613
:101998001FD5E1185A1C302081F84300224494F8DE
:1019A800451082F84310023313E03046394604F1FB
:1019B80019020123C047013007D009F10109E26883
:1019C8002B68D31A9945F0DBDBE74FF0FF30BDE811
:1019D800F8833046394604F14302C0470130F4D059
:1019E80023682A68E16803F00603042B08BFC2EBEA
:1019F80001052369A2680CBF25EAE57500259A420E
:101A0800C4BFC3EB0203ED184FF00009A9450ADA79
:101A18003046394604F11A020123C0470130D4D0B8
:101A280009F10109F2E70020BDE8F8832DE9FF4735
:101A38000E7E0C9D6E2E80460C4691469A4601F10C
:101A4800430000F0A58011D8632E22D009D8002EBB
:101A580000F0AF80582E40F0BF8081F845607B4A87
:101A68004FE0642E1ED0692E1CD0B5E0732E00F016
:101A7800A48009D86F2E2BD0702E40F0AD800B6853
:101A880043F020030B6038E0752E21D0782E34D037
:101A9800A2E02B681A1D1B682A6001F1420781F831
:101AA80042309DE022682B6812F0800F03D01A1D87
:101AB8002A601D6805E05106F9D51A1D2A60B3F998
:101AC8000050002D39DA2D236D4284F8433034E07C
:101AD80022682B6812F0800F03D01A1D2A601D6837
:101AE80004E05206F9D51A1D2A601D88237E574A3C
:101AF8006F2B14BF0A2308231BE07823544A84F869
:101B080045302368296813F0800F01F104062E6020
:101B180001D00D6802E05F06FBD50D88DE0744BFE3
:101B280043F0200323601DB9236823F020032360BA
:101B38001023002184F8431001E0444A0A23666810
:101B4800A660002E03DB216821F00401216005B99D
:101B58006EB104F14201B5FBF3F603FB16550F46CF
:101B6800555D01F801593546002EF4D100E00746CD
:101B7800082B0AD12368DD0707D5626823699A42D2
:101B880003DC302307F8013C013FC01B20612CE037
:101B980009682B68626911F0800F04D0191D29604B
:101BA8001B681A6005E04906F8D5191D29601B68ED
:101BB8001A8000232361074617E02B681A1D2A6044
:101BC8001F683846FFF734FD63682061984288BF74
:101BD80023612369636005E004F1420784F84260E9
:101BE80001232361002384F84330CDF800A0404648
:101BF800214603AA4B46FFF7A7FE013002D14FF05A
:101C0800FF301FE0404649463A462369D047013035
:101C1800F5D023689B0705D4E068039B9842B8BFBA
:101C280018460FE00025E268039BD31A9D42F3DAB9
:101C38004046494604F119020123D0470130DED05D
:101C48000135F0E704B0BDE8F08700BFB31F000816
:101C5800C41F000810B5C9B202449042034606D01A
:101C68001C788C4200F10100F7D1184610BD002005
:101C780010BD10B50023934203D0CC5CC45401338B
:101C8800F9E710BD814270B501D300230EE08C182E
:101C9800A042FAD28518134613F1FF3305D35142F7
:101CA80066182944F65CCE54F6E770BD934203D01B
:101CB800CC5CC4540133F9E770BD000030B500298D
:101CC8003CD051F8042C0B1F1D49002AB8BF9B18A3
:101CD8000A680C4612B95A600B6030BD93420DD2A7
:101CE80019685818904203D15A581144426819602B
:101CF8005A60236030BD994203D80A4651680029CA
:101D0800F9D1146815199D420AD11B682344D018CB
:101D18008842136012D10868034413604B680CE0D2
:101D280002D90C23036030BD18681C188C4203D1FB
:101D38000C684968204418605960536030BD00BF82
:101D48001401002070B5CD1C25F0030508350C2DB5
:101D580038BF0C25002D06463FDB8D423DD3214B75
:101D68001C6818462146A1B10B685B1B0ED40B2BCF
:101D780003D90B60CC18CD501FE08C4202D16268A9
:101D880002601AE04B6863600C4616E00C4649682E
:101D9800E9E7154C23681BB9304600F04DF8206080
:101DA8002946304600F048F8431C014615D0C41CAB
:101DB80024F0030484420AD1256004F10B00231D9A
:101DC80020F00700C31A0BD05A42E25070BD3046CB
:101DD800611A00F031F80130EED10C233360002095
:101DE80070BD00BF1401002010010020F8B50646A0
:101DF80014460D4621B91146BDE8F840FFF7A2BFC9
:101E08001AB9FFF75BFF2046F8BD00F025F8A0429D
:101E18000ED230462146FFF795FF074650B12946B6
:101E28002246FFF726FF30462946FFF747FF01E025
:101E38002846F8BD3846F8BD38B5064C0023054697
:101E480008462360FFF720FA431C02D1236803B138
:101E58002B6038BD1801002051F8040C002802DA64
:101E680004390B5818440438704700002E2E2F737D
:101E7800797374656D2F7372632F73746D33326663
:101E8800342D68616C2F73746D3332663478785FE3
:101E980068616C5F636F727465782E630000000080
:101EA80000000000010203040102030406070809F8
:101EB8002E2E2F73797374656D2F7372632F73745D
:101EC8006D333266342D68616C2F73746D333266EE
:101ED8003478785F68616C5F7263632E630000001A
:101EE80061626F727428292C2065786974696E673D
:101EF8002E2E2E002C2066756E6374696F6E3A2044
:101F08000000000000000000617373657274696F5F
:101F18006E2022257322206661696C65643A20660A
:101F2800696C6520222573222C206C696E6520253A
:101F380064257325730A00006173736572745F709A
:101F48006172616D2829206661696C65643A206652
:101F5800696C6520222573222C206C696E6520250A
:101F6800640A00000A0000006D61696E28617267EA
:101F7800633D25642C20617267763D5B000000009C
:101F88002C20000022257322000000005D293B0A56
:101F9800000000003A7474004300232D302B200009
:101FA800686C4C006566674546470030313233340B
:101FB80035363738394142434445460030313233AB
:0D1FC8003435363738396162636465660070
:101FD8007856341284000020000000000024F40029
:101FE80000000000000000000000000000000000E9
:101FF80000000000000000000000000000000000D9
:10200800A01F000800000000000000000000000001
:1020180000000000000000000000000000000000B8
:1020280000000000000000000000000000000000A8
:102038000000000000000000000000000000000098
:082048001000002032547698CC
:04000005080001AD41
:00000001FF
